S0150000575332386231325F434C4F434B2E737265636B
S113000046C04DC45FC05EC05DC05CC0B9C15AC0CB
S113001059C072C057C056C055C054C053C052C016
S113002051C050C04FC0E2C5EFC5FCC54AC657C653
S113003064C671C67EC601C81EC731C744C757C748
S113004068C77AC78CC7A8C7FEC7FDC7C2C7CDC7D4
S1130050E7C72EC930C913C915C917C919C91BC99E
S11300601DC91FC921C94CC94EC931C933C935C9B4
S113007037C939C93BC93DC93FC964C966C94FC9F4
S113008051C953C955C95EC956C958C95BC9112458
S11300901FBECFE5D4E0DEBFCDBF12E0A0E6B0E0E6
S11300A0E4E5FAE102C005900D92A431B107D9F755
S11300B022E0A4E1B2E001C01D92AE34B207E1F740
S11300C038D4C6CC9DCF86B1806886B986B18760A6
S11300D086B987B1806C87B9089586B1806486B982
S11300E03699FECF84B195B1089589B7816089BFEF
S11300F083B7856083BF08951F920F920FB60F9246
S113010011242F933F938F939F93809115028130F5
S113011029F4809114028F5F809314028091140259
S11301208F3120F0109215021092140286990EC09D
S11301308091150281110AC080913202909133029C
S1130140019690933302809332023BC08091320235
S1130150909133029C01265031092332310570F409
S113016081E08093300280913A02811102C01092A2
S11301704702109233021092320223C0899708F189
S113018080913A02883068F48F5F80933A028091BC
S1130190160290911702019690931702809316020B
S11301A006C010923A02109217021092160282E0D0
S11301B080933002109233021092320281E08093D5
S11301C015029F918F913F912F910F900FBE0F9029
S11301D01F9018959FB7F89481B3806881BBE3E9B9
S11301E0F7E03197F1F700C0000081B38F7781BB4E
S11301F0E3E0F1E03197F1F700C00000879902C015
S113020081E001C080E09FBFEFE8F6E03197F1F7AD
S113021000C0000008959FB7F89481B3806881BB43
S11302202AE02A95F1F700C081B38F7781BB85E47A
S11302308A95F1F7000080B3881F8827881F20EF74
S11302402A95F1F79FBF0895CF93DF93C0E0D0E0E4
S11302500AC0E1DF90E00C2E02C0880F991F0A94B7
S1130260E2F7D82BCF5FC830A0F38D2FDF91CF9169
S113027008952FB7F89491B3906891BB9AE09A953A
S1130280F1F700C0882319F081B38F7781BB83E035
S113029091E00197F1F700C0000081B38F7781BB33
S11302A02FBF0895CF93DF93D82FC0E015C081E00E
S11302B090E00C2E02C0880F991F0A94E2F72D2FAC
S11302C030E0282339238217930719F481E0D1DF22
S11302D002C080E0CEDFCF5FC83048F3DF91CF911A
S11302E00895CF9377DF8130D1F48CECDBDF84E4A5
S11302F0D9DF2FEF81EE94E0215080409040E1F768
S113030000C0000067DF8CECCDDF8EEBCBDF9CDF21
S1130310C82F9ADF90E0982F88278C2B02C080E0AA
S113032090E0CF91089596958795969587959695A3
S113033087950895E199FECF9FBB8EBB6DBB8CB3AF
S113034084608CBB8CB382608CBB0895E199FECF32
S11303509FBB8EBB8CB381608CBB8DB308958EB56F
S113036088608EBD89B7806189BF8AE78BBD82E1D1
S11303708ABD8EB582608EBD8EB581608EBD0895B6
S11303801F920F920FB60F9211242F933F934F9306
S11303905F936F937F938F939F93AF93BF93EF93E9
S11303A0FF9380911A0290911B02019690931B0275
S11303B080931A02029724F010921B0210921A02E0
S11303C080912C0290912D028F3F910539F034F0E9
S11303D021E030E0309344022093430218161906BA
S11303E024F010924402109243022091430230916F
S11303F04402232B31F4059690932D0280932C0212
S113040005C0059790932D0280932C02809166007D
S1130410909167008333910534F021E030E030930C
S11304202B0220932A028530910524F410922B028A
S113043010922A0220912A0230912B02232B81F45C
S1130440209168003091690022503109309369008D
S113045020936800039690936700809366000FC012
S113046020916800309169002E5F3F4F30936900FE
S113047020936800039790936700809366008091AF
S1130480240290912502892B91F58091220290916A
S11304902302892B61F58091200290912102892BFE
S11304A031F580911E0290911F02892B01F58091F4
S11304B01C0290911D02892BD1F480912802909105
S11304C029028F3F91059CF42091640030916500CE
S11304D02F3F310561F42091260230912702232B0E
S11304E031F4059690932902809328022EC181E06D
S11304F090E09093250280932402809122029091AF
S11305002302892B91F58091200290912102892B5D
S113051061F580911E0290911F02892B31F5809123
S11305201C0290911D02892B01F580912802909163
S113053029028D3C9105CCF0209164003091650036
S11305401216130694F44091260250912702452B6B
S113055061F4039790932902809328022F50310964
S11305603093650020936400F0C081E090E09093A4
S11305702302809322028091200290912102892BF0
S113058061F580911E0290911F02892B31F58091B3
S11305901C0290911D02892B01F5809126029091F5
S11305A0270288399105CCF4209128023091290240
S11305B02439310594F04091640050916500452B35
S11305C061F42350310930932902209328020896BC
S11305D09093270280932602B8C081E090E0909324
S11305E021028093200280911E0290911F02892B88
S11305F069F580911C0290911D02892B39F5809137
S11306002802909129028C31910504F12091640013
S1130610309165002E313105CCF440912602509181
S11306202702463B510594F44D5F5F4F50932702D8
S1130630409326020C9790932902809328022D5F01
S11306403F4F30936500209364007FC081E090E0C9
S113065090931F0280931E0280911C0290911D02B0
S1130660892B39F58091260290912702853A9105CC
S113067004F12091640030916500253A3105CCF4F1
S113068040912802509129021416150694F44350FF
S1130690510950932902409328020297909327020C
S11306A080932602215F3F4F3093650020936400BE
S11306B04CC081E090E090931D0280931C028091D5
S11306C026029091270283309105ECF0209164007A
S11306D0309165002F3F3105B4F4409128025091C8
S11306E02902452B81F41092290210922802429784
S11306F09093270280932602265F3F4F3093650034
S11307002093640022C010921D0210921C021092C9
S11307101F0210921E0210922102109220021092C7
S113072023021092220210922502109224028FEFCB
S113073090E09093650080936400109229021092D7
S1130740280210922702109226028091340290917E
S11307503502892B79F42091390260916A007091F5
S11307606B0080913B0290E034E6239F800D911D45
S11307701124EED58091340290913502019721F530
S11307802091180230911902C9019595879564E664
S1130790689FA001699F500D112421703078332384
S11307A034F4215031092E6F3F6F2F5F3F4F62E3C6
S11307B0629FC001639F900D112460916A00709143
S11307C06B00840F951FC4D580913402909135023B
S11307D0029779F42091450260916A0070916B0050
S11307E08091310290E034E6239F800D911D112405
S11307F0AFD58091340290913502039799F46091BA
S11308006A0070916B002091400230E0C901880FAA
S1130810991F220F331F220F331F220F331F820F02
S1130820931F96D58091340290913502049751F428
S113083060916A0070916B0080913C0290E080535B
S1130840984F86D58091340290913502059779F4BA
S11308502091420260916A0070916B00809146027F
S113086090E034E6239F800D911D112471D5FF91F2
S1130870EF91BF91AF919F918F917F916F915F9114
S11308804F913F912F910F900FBE0F901F9018958D
S113089085B7826085BF8BB780648BBF08951F9234
S11308A00F920FB60F9211248F939F9380916A0039
S11308B090916B00019690936B0080936A000E9761
S11308C031F481E090E090936B0080936A009F91F3
S11308D08F910F900FBE0F901F90189581B38B7F4F
S11308E081BB82B3846082BB8FEF87BB18BA21B30C
S11308F081E090E002C0880F991F2A95E2F791B336
S1130900892B81BB82B3816082BB81B38F7B81BB26
S113091082B3806482BB089582B38E7F82BB8FE5ED
S11309209AEE0197F1F700C0000082B3816082BBA8
S113093008951092470210923302109232021092DC
S11309403A0282E08093300210923802C7DFCDDB96
S1130950FFD19EDFB8DB2FD1789401DD81E090E0F8
S1130960F5DC823020F060E081E090E0E3DC81E0BF
S113097090E0ECDC8093410282E090E0E7DC883197
S113098020F060E082E090E0D5DC83E090E0DEDC03
S11309908C3320F060E083E090E0CCDC2FEF83ED3B
S11309A090E3215080409040E1F700C00000D3D193
S11309B080EDDAD180E0D8D1D4D1CDD181EDD4D1BC
S11309C0DAD1EED080933D02D6D1EAD080933B02B7
S11309D0D2D1E6D080933902CED1E2D080934002C6
S11309E0CAD1DED080934502C6D1DAD080933102D9
S11309F0C9D1D6D080933C02B4D16FDB813F91053D
S1130A0068F08DEC9CECACE4BDE3809360009093C3
S1130A106100A0936200B09363000CC080E090E09A
S1130A20A0E8BFE38093600090936100A09362000C
S1130A30B093630056DC77DC90E0909319028093C6
S1130A40180282E090E082DC8093420283E090E02E
S1130A507DDC8093460290913B02891315C09091EE
S1130A6042028091390298130FC080913A02811199
S1130A700BC080913802811103C081E0809347024A
S1130A8081E08093380202C01092380280911602ED
S1130A90909117029C01215031092230310528F42C
S1130AA010923502109234024EC09C012350310939
S1130AB02230310538F482E090E09093350280933F
S1130AC0340241C08530910539F484E090E090937C
S1130AD035028093340237C08630910539F483E0BF
S1130AE090E090933502809334022DC007970297CB
S1130AF038F485E090E0909335028093340223C06B
S1130B0080913D0292EE980F9C3028F010923502AD
S1130B101092340218C0823238F481E090E090934D
S1130B203502809334020FC0863238F482E090E0BC
S1130B30909335028093340206C083E090E0909352
S1130B4035028093340280913A02882341F08091E7
S1130B503002813021F43AD082E0809330028091D7
S1130B603802813031F480914702813011F4D4DEAF
S1130B701ECF82B3816082BB1ACF9DEC899F912DD9
S1130B80112496959695969520E1929FA0011124A3
S1130B90990F292F220F220F920F891B842B08955E
S1130BA0982F92959F70990F292F220F220F920F41
S1130BB08F70890F0895CFD080EDD6D08EE0D4D039
S1130BC080E2D2D088E0D0D0CCD00895C4D080EDDB
S1130BD0CBD0E0913A028E2F90E0FC013197E830BF
S1130BE0F10508F0B3C0ED5EFF4F099482E0BCD07C
S1130BF080913902873120F48F5FBFDFB5D0A6C062
S1130C0080E0BBDFB1D0A2C081E0AED080913B02D6
S1130C108B3320F48F5FB1DFA7D098C080E0ADDFC5
S1130C20A3D094C084E0A0D0809131028230E1F45A
S1130C3080913C02837061F4809145028D3120F4EF
S1130C408F5F9BDF91D082C081E097DF8DD07EC023
S1130C50809145028C3120F48F5F8FDF85D076C080
S1130C6081E08BDF81D072C021E0843009F020E084
S1130C7091E0863009F090E0292B91E0893009F069
S1130C8090E031E08B3009F030E0922B11F4332303
S1130C9061F0809145028E3120F48F5F6EDF64D065
S1130CA055C081E06ADF60D051C0809145028F3128
S1130CB020F48F5F62DF58D049C081E05EDF54D0FA
S1130CC045C085E051D0809131028C3020F48F5F93
S1130CD054DF4AD03BC081E050DF46D037C086E0C5
S1130CE043D080913C02833620F48F5F46DF3CD0B2
S1130CF02DC081E042DF38D029C083E035D0809117
S1130D004002873020F48F5F38DF2ED01FC081E08F
S1130D1034DF2AD01BC060914202673128F46F5F30
S1130D2082E090E007DB12C060E082E090E002DB4A
S1130D300DC0609146026B3328F46F5F83E090E04E
S1130D40F9DA04C060E083E090E0F4DA0AD00895B0
S1130D5080E280B9089584EA86BF06B607FEFDCF17
S1130D60089584E986BF089583B984E886BF06B6EA
S1130D7007FEFDCF089584EC86BF06B607FEFDCFBF
S1130D8083B1089584E886BF06B607FEFDCF83B11C
S1130D90089588B3886088BB0000000088B3877F0B
S1130DA088BB0000000000000000089588B388603C
S1130DB088BB0000000000000000000088B3877FAB
S1130DC088BB000008950F931F93CF93DF93CDB793
S1130DD0DEB760970FB6F894DEBF0FBECDBF20E03C
S1130DE030E012C0AC0141705527F901EE0FFF1F2E
S1130DF061E070E06C0F7D1FE60FF71F51834083A5
S1130E00959587952F5F3F4F283031055CF307E0B8
S1130E1010E014C0F801EE0FFF1F81E090E08C0F8A
S1130E209D1FE80FF91F80819181009721F00197A0
S1130E3019F4BCDF01C0ADDF01501109112354F7CF
S1130E4060960FB6F894DEBF0FBECDBFDF91CF9191
S1130E501F910F910895CF92DF92EF92FF920F931B
S1130E601F93CF93DF938E30910508F0ECC0FC0103
S1130E70E55EFF4F099420E030E04FE753E46091D2
S1130E8060007091610080916200909163002ED5A2
S1130E90D3D48B01E12CF12CC0E0D0E0D4C020E00D
S1130EA030E04FE753E460916000709161008091FD
S1130EB06200909163001AD5BFD4EB01E12CF12CB0
S1130EC000E010E0C0C020E030E04FE753E4609160
S1130ED0600070916100809162009091630006D57A
S1130EE0ABD47B01C0E0D0E000E010E0ACC020E077
S1130EF030E04FE753E460916000709161008091AD
S1130F00620090916300F2D497D48B017B01EB01D2
S1130F109AC020E030E04FE753E4609160007091A4
S1130F2061008091620090916300E0D485D48B01CC
S1130F30EB01E12CF12C87C020E030E045E253E4E2
S1130F4060916000709161008091620090916300F3
S1130F50CDD472D4EB017B0100E010E074C0C090EA
S1130F606000D0906100E0906200F090630020E0A7
S1130F7030E04EEF52E4C701B601B8D45DD48B0122
S1130F8020E030E04FE753E4C701B601AFD454D4B6
S1130F90EB01E12CF12C57C0C0906000D0906100AF
S1130FA0E0906200F090630020E030E04AEF52E409
S1130FB0C701B6019BD440D48B0120E030E04EE160
S1130FC053E4C701B60192D437D47B01C0E0D0E02A
S1130FD03AC08B01772314F40F5F1F4F15950795C3
S1130FE0E12CF12CCFE7D0E02EC0009166001091E7
S1130FF06700112314F40F5F1F4F15950795609137
S1131000680070916900772314F46F5F7F4FEB01E0
S1131010D595C7950F2EF3E2EF2EF12CF02D13C0CA
S11310200091280210912902C0916400D0916500BA
S1131030E0902602F090270206C0E12CF12CC0E0DB
S1131040D0E000E010E0C801BEDECE01BCDEC70186
S1131050BADE88B3877F88BBDF91CF911F910F9150
S1131060FF90EF90DF90CF9008950F931F93CF934D
S1131070DF938C01EB0110922F0210922E0281E07B
S113108090E090934B0280934A02BDC0E0912E02FF
S1131090F0912F02EE0FFF1FE00FF11F808191816D
S11310A06817790709F0A3C0C930D105B9F4809154
S11310B04C0290914D02019690934D0280934C0204
S11310C0099731F481E090E090934D0280934C02B3
S11310D080914C0290914D02BEDE7FC0CA30D10592
S11310E0A9F5CB0101970E9718F481E090E0B3DEE7
S11310F060914A0270914B02CB010F970E9718F43E
S113110085E090E0A8DE60914A0270914B02CB0129
S11311104D97039718F482E090E09DDE60914A02B7
S113112070914B02CB0180970E9718F483E090E006
S113113092DE60914A0270914B02CB018E970E971A
S113114008F04BC086E090E086DE47C0CE010B97E6
S1131150039708F040C0615071096E30710530F496
S113116060912C0270912D02CE0175DE80914A02AD
S113117090914B020F970E9730F460912C0270916E
S11311802D02CE0168DE80914A0290914B024D9768
S1131190039730F460912C0270912D02CE015BDE36
S11311A080914A0290914B0280970E9730F460919F
S11311B02C0270912D02CE014EDE80914A02909154
S11311C04B028E970E9748F460912C0270912D0279
S11311D0CE0141DE02C0CE013EDE80912E0290910E
S11311E02F02019690932F0280932E0203C080E079
S11311F090E031DE80914A0290914B0201969093E7
S11312004B0280934A0260914A0270914B026C3304
S113121071050CF43BCFDF91CF911F910F9108958D
S113122020E030E00DC0F901EE0FFF1FE80FF91FB9
S1131230A081B181A61BB70BB183A0832F5F3F4F61
S11312402417350784F3089520E030E00DC0F90138
S1131250EE0FFF1FE80FF91FA081B181A60FB71F82
S1131260B183A0832F5F3F4F2417350784F308957C
S11312708A309105E0F4FC01E75DFF4F099420EE0C
S113128031E01BC02CEC31E018C02CEB31E015C070
S113129028EA31E012C020E931E00FC024E831E04F
S11312A00CC028E631E009C020E531E006C008950D
S11312B02CEF31E002C024EF31E0822F932F089508
S11312C08A309105E0F4FC01ED5CFF4F09942CE1B8
S11312D031E01BC028E031E018C028EF30E015C031
S11312E024EE30E012C02CEC30E00FC020EC30E0F3
S11312F00CC024EA30E009C02CE830E006C00895B0
S113130028E331E002C020E331E0822F932F0895D7
S11313108A309105B0F4FC01E35CFF4F09948AE044
S113132090E008958AE090E0089588E090E00895C0
S11313308AE090E0089586E090E008958EE090E0E1
S1131340089508958CE090E0089584E090E0089575
S11313502F923F924F925F926F927F928F929F92C1
S1131360AF92BF92CF92DF92EF92FF920F931F93AF
S1131370CF93DF93CDB7DEB7C757D1090FB6F89433
S1131380DEBF0FBECDBF9C011B01EAE0F0E0BF0150
S113139038D32C01CB01BF0134D36C01C90164E6FD
S11313A070E02FD3CB01BF012CD35C01C90168EEDF
S11313B073E027D38B01CB01ABDF7C01C80180DF55
S11313C04C01A7016FE170E02BDF20913A0221303C
S11313D031F0273021F0233011F0253031F4209101
S11313E01A0230911B02232B39F1209134023091DF
S11313F035022330310519F140E050E020E030E0BF
S113140016C0FA01EE0FFF1FE80FF91F608171810A
S1131410F901EE0FFF1FA1E0B0E0AC0FBD1FEA0F12
S1131420FB1F718360834F5F5F4F2F5F3F4F2E150C
S11314303F053CF3870105C000E010E002C000E076
S113144010E0A7016FE170E0C401FEDEC50160DFBA
S11314507C01C5010DDF5C01A7016FE170E0E0DEF6
S113146020913A02213041F0273031F0233021F02D
S1131470253011F0263039F420911A0230911B02E4
S1131480232B09F44EC020913402309135022330CD
S11314903105D9F0980140E050E03BC0F901EE0F6E
S11314A0FF1FE059FF4F40815181FC01EE0FFF1FE8
S11314B088248394912C8C0E9D1EE80DF91D518374
S11314C040832F5F3F4F019603C0C80120E030E006
S11314D0A8014E5F5F4F8417950704F36894662450
S11314E061F8712C20C0FA01EE0FFF1FE80FF91FFD
S11314F060817181F901EE0FFF1FA1E0B0E0AC0F34
S1131500BD1FEA0FFB1F718360834F5F5F4F2F5F27
S11315103F4FB8016E0D7F1D2617370724F337019F
S113152002C0612C712CA7016FE170E0C5018CDE53
S113153080903402909035028114910421F0B5E03A
S11315408B16910461F580913D0280FD28C0B301A2
S1131550600F711FCB0120E030E015C0F901EE0FE0
S1131560FF1FEA57FF4F40815181FC01EE0FFF1F1F
S1131570A1E0B0E0AC0FBD1FEA0FFB1F5183408315
S11315802F5F3F4F0196AB014D5F5F4F8417950767
S11315902CF30F2EF3E0EF2EF12CF02D2CC0C40110
S11315A00197029730F5A301400F511FCA0120E0B3
S11315B030E015C0F901EE0FFF1FEC57FF4F6081BB
S11315C07181FC01EE0FFF1FA1E0B0E0AC0FBD1F65
S11315D0EA0FFB1F718360832F5F3F4F0196BA01AF
S11315E06F5F7F4F861797072CF3EE24E394F12C5B
S11315F002C0E12CF12CC60163DE5C01B0913A0219
S1131600E896BFAFE897B23041F0B83031F0B4306B
S113161021F0B53011F0B63031F480911A02909176
S11316201B02892B51F1C60173DE6C01B301600FFB
S1131630711FC701860F971F20E030E015C0F90124
S1131640EE0FFF1FEA0DFB1D40815181FC01EE0FDF
S1131650FF1FA1E0B0E0AC0FBD1FEA0FFB1F5183D9
S113166040832F5F3F4F0196A601460F571F4E0D33
S11316705F1D841795071CF302C0C12CD12CC20135
S1131680F7DD5C01E896BFADE897B23041F0B830C1
S113169031F0B43021F0B53011F0B63039F4809126
S11316A01A0290911B02892B09F48BC061E0861603
S11316B0910459F5B301600F711F6C0D7D1DC701B5
S11316C0860F971F20E030E015C0F901EE0FFF1FD1
S11316D0EC58FF4F40815181FC01EE0FFF1FA1E048
S11316E0B0E0AC0FBD1FEA0FFB1F518340832F5F97
S11316F03F4F0196AB01485F5F4F4E0D5F1D84174E
S113170095071CF388E090E05EC0B3E08B1691046B
S113171059F5A301400F511F4C0D5D1DC701840FE6
S1131720951F20E030E016C0F901EE0FFF1FE459C9
S1131730FF4F60817181FC01EE0FFF1F88248394A9
S1131740912C8C0E9D1EE80DF91D718360832F5F13
S11317503F4F0196B301640F751F6E0D7F1D8617F1
S1131760970714F3C3012FC0C201D2DDD301A00F28
S1131770B11FAC0DBD1D97012A0F3B1F40E050E087
S113178017C0FA01EE0FFF1FEA0DFB1D6081718186
S1131790F901EE0FFF1F88248394912C8C0E9D1E5B
S11317A0E80DF91D718360834F5F5F4F2F5F3F4FDB
S11317B0BC016A0F7B1F6E0D7F1D261737070CF3C4
S11317C002C080E090E0060D171DC00ED11E8C0DE6
S11317D09D1DE80EF91E0EC0F701EE0FFF1F61E01C
S11317E070E06C0F7D1FE60FF71F118210827FEFF0
S11317F0E71AF70A8BE3E816F10474F3B101CE019A
S1131800019633DCC958DF4F0FB6F894DEBF0FBE24
S1131810CDBFDF91CF911F910F91FF90EF90DF909B
S1131820CF90BF90AF909F908F907F906F905F907C
S11318304F903F902F90089504D06894B11150C0F8
S1131840089533D088F09F5790F0B92F9927B75156
S1131850A0F0D1F0660F771F881F991F1AF0BA9570
S1131860C9F712C0B13081F03AD0B1E0089537C061
S1131870672F782F8827B85F39F0B93FCCF3869566
S113188077956795B395D9F73EF4909580957095C3
S113189061957F4F8F4F9F4F089557FD9058440F88
S11318A0551F59F05F3F71F04795880F97FB991FBB
S11318B061F09F3F79F08795089512161306140678
S11318C0551FF2CF4695F1DF08C016161706180605
S11318D0991FF1CF86957105610508940895E894E0
S11318E0BB2766277727CB0197F908950BD078C0DB
S11318F069D028F06ED018F0952309F05AC05FC063
S11319001124EECFCADFA0F3959FD1F3950F50E0D9
S1131910551F629FF001729FBB27F00DB11D639F9D
S1131920AA27F00DB11DAA1F649F6627B00DA11D43
S1131930661F829F2227B00DA11D621F739FB00DE9
S1131940A11D621F839FA00D611D221F749F332759
S1131950A00D611D231F849F600D211D822F762FF2
S11319606A2F11249F5750408AF0E1F088234AF0EF
S1131970EE0FFF1FBB1F661F771F881F915050403B
S1131980A9F79E3F510570F014C0AACF5F3FECF356
S1131990983EDCF3869577956795B795F795E79527
S11319A09F5FC1F7FE2B880F911D9695879597F938
S11319B0089597F99F6780E870E060E008959FEFCD
S11319C080EC089500240A941616170618060906D2
S11319D0089500240A9412161306140605060895A1
S11319E0092E0394000C11F4882352F0BB0F40F429
S11319F0BF2B11F460FF04C06F5F7F4F8F4F9F4F69
S1131A00089597FB072E16F4009406D077FD08D0AE
S1131A100BD007FC05D03EF4909581959F4F089517
S1131A20709561957F4F0895AA1BBB1B51E107C0B8
S1131A30AA1FBB1FA617B70710F0A61BB70B881F5A
S1131A40991F5A95A9F780959095BC01CD010895E9
S1071A50F894FFCF34
S1131A540000803FFF000500230001003A003B0022
S1131A641B001C002E002F0030003100360037000C
S1131A74380039001D001D001E001F002000210035
S1131A842200230024002500260027002A002B001E
S1131A942C002D0020002100220023002400250016
S1131AA426002700280029002A002B002C002D00E2
S1131AB422002300240025002C002D0020002100F6
S1131AC42400250026002700280029002A002B00D2
S1131AD42C002D00200021002400250026002700CE
S1131AE42A002B002C002D002000210022002300BA
S1131AF4260027002C002D002000210022002300B2
S1131B04240025002A002B002C002D002000210095
S1131B142200230024002500280029002A002B0089
S1131B24220023002C002D00220023002400250081
S1131B3426002700280029002A002B002C002D0051
S1131B4430003100320033003400350036003700F1
S1131B54380039003A003B002E002F0030003100D9
S1131B6432003300340035003600370038003900C1
S1131B743A003B00320033003400350036003700AD
S1131B842E002F00300031003200330036003700BD
S1131B94380039003A003B00300031003200330091
S1131BA436003700380039003A003B003200330075
S1131BB434003500380039003A003B00300031006D
S1131BC43200330034003500360037003A003B005D
S1131BD42E002F0030003100340035003600370069
S1131BE43A003B0032003300340035002E002F004D
S1131BF43000310032003300340035003600370041
S1071C043800390067
S9030000FC
